{
  "contractName": "Achievements",
  "abi": [
    {
      "inputs": [
        {
          "name": "messagesContract",
          "type": "address"
        }
      ],
      "payable": false,
      "stateMutability": "nonpayable",
      "type": "constructor",
      "signature": "constructor"
    },
    {
      "anonymous": false,
      "inputs": [
        {
          "indexed": false,
          "name": "messageHash",
          "type": "bytes32"
        },
        {
          "indexed": false,
          "name": "previousMessageHash",
          "type": "bytes32"
        }
      ],
      "name": "Create",
      "type": "event",
      "signature": "0x0d2297cec1ae03481ad18bf4f056374d7da4ae00ce43627b64659002125cccf0"
    },
    {
      "anonymous": false,
      "inputs": [
        {
          "indexed": false,
          "name": "link",
          "type": "string"
        },
        {
          "indexed": false,
          "name": "newTitle",
          "type": "string"
        }
      ],
      "name": "UpdateTitle",
      "type": "event",
      "signature": "0x95cc0ae12bd9a5e87d3df5b8c102cef2b31bab9d9fd267387a974eb1a9924b61"
    },
    {
      "anonymous": false,
      "inputs": [
        {
          "indexed": false,
          "name": "owner",
          "type": "address"
        },
        {
          "indexed": false,
          "name": "link",
          "type": "string"
        },
        {
          "indexed": false,
          "name": "witness",
          "type": "address"
        }
      ],
      "name": "Confirm",
      "type": "event",
      "signature": "0x44cd04f736ad09845a66019a358898aacdd64afdc1e497dea7cc83f6d81036df"
    },
    {
      "anonymous": false,
      "inputs": [
        {
          "indexed": false,
          "name": "userAddress",
          "type": "address"
        },
        {
          "indexed": false,
          "name": "creatorAddress",
          "type": "address"
        },
        {
          "indexed": false,
          "name": "link",
          "type": "string"
        },
        {
          "indexed": false,
          "name": "amount",
          "type": "uint256"
        }
      ],
      "name": "Support",
      "type": "event",
      "signature": "0xfb718deb4373d991b86a4400b72aa17f65b77a0067773b9af07312e005982717"
    },
    {
      "constant": false,
      "inputs": [
        {
          "name": "tokenContract",
          "type": "address"
        }
      ],
      "name": "initToken",
      "outputs": [],
      "payable": false,
      "stateMutability": "nonpayable",
      "type": "function",
      "signature": "0xdf4d17dc"
    },
    {
      "constant": true,
      "inputs": [
        {
          "name": "owner",
          "type": "address"
        },
        {
          "name": "link",
          "type": "string"
        }
      ],
      "name": "getHash",
      "outputs": [
        {
          "name": "",
          "type": "bytes32"
        }
      ],
      "payable": false,
      "stateMutability": "view",
      "type": "function",
      "signature": "0x6b2c61c1"
    },
    {
      "constant": true,
      "inputs": [
        {
          "name": "owner",
          "type": "address"
        }
      ],
      "name": "getAchievementsChain",
      "outputs": [
        {
          "name": "",
          "type": "bytes32[]"
        }
      ],
      "payable": false,
      "stateMutability": "view",
      "type": "function",
      "signature": "0xaaf93ac1"
    },
    {
      "constant": true,
      "inputs": [
        {
          "name": "messageHash",
          "type": "bytes32"
        }
      ],
      "name": "getAchievementByHash",
      "outputs": [
        {
          "components": [
            {
              "name": "owner",
              "type": "address"
            },
            {
              "name": "title",
              "type": "string"
            },
            {
              "name": "link",
              "type": "string"
            },
            {
              "name": "exists",
              "type": "bool"
            }
          ],
          "name": "",
          "type": "tuple"
        }
      ],
      "payable": false,
      "stateMutability": "view",
      "type": "function",
      "signature": "0x6b48eb03"
    },
    {
      "constant": true,
      "inputs": [
        {
          "name": "owner",
          "type": "address"
        },
        {
          "name": "link",
          "type": "string"
        }
      ],
      "name": "getAchievement",
      "outputs": [
        {
          "components": [
            {
              "name": "owner",
              "type": "address"
            },
            {
              "name": "title",
              "type": "string"
            },
            {
              "name": "link",
              "type": "string"
            },
            {
              "name": "exists",
              "type": "bool"
            }
          ],
          "name": "",
          "type": "tuple"
        }
      ],
      "payable": false,
      "stateMutability": "view",
      "type": "function",
      "signature": "0xab722ce8"
    },
    {
      "constant": false,
      "inputs": [
        {
          "name": "link",
          "type": "string"
        },
        {
          "name": "newTitle",
          "type": "string"
        }
      ],
      "name": "updateTitle",
      "outputs": [],
      "payable": false,
      "stateMutability": "nonpayable",
      "type": "function",
      "signature": "0xad308907"
    },
    {
      "constant": false,
      "inputs": [
        {
          "name": "link",
          "type": "string"
        },
        {
          "name": "title",
          "type": "string"
        }
      ],
      "name": "create",
      "outputs": [],
      "payable": false,
      "stateMutability": "nonpayable",
      "type": "function",
      "signature": "0x198e2b8a"
    },
    {
      "constant": false,
      "inputs": [
        {
          "name": "owner",
          "type": "address"
        },
        {
          "name": "link",
          "type": "string"
        }
      ],
      "name": "confirm",
      "outputs": [],
      "payable": false,
      "stateMutability": "nonpayable",
      "type": "function",
      "signature": "0x2d5bf520"
    },
    {
      "constant": false,
      "inputs": [
        {
          "name": "userAddress",
          "type": "address"
        },
        {
          "name": "creatorAddress",
          "type": "address"
        },
        {
          "name": "link",
          "type": "string"
        },
        {
          "name": "amount",
          "type": "uint256"
        }
      ],
      "name": "support",
      "outputs": [],
      "payable": false,
      "stateMutability": "nonpayable",
      "type": "function",
      "signature": "0xaad2af42"
    }
  ],
  "bytecode": "0x60806040523480156200001157600080fd5b5060405160208062001848833981018060405262000033919081019062000090565b806000806101000a81548173ffffffffffffffffffffffffffffffffffffffff021916908373ffffffffffffffffffffffffffffffffffffffff16021790555050620000f0565b6000620000888251620000dc565b905092915050565b600060208284031215620000a357600080fd5b6000620000b3848285016200007a565b91505092915050565b600073ffffffffffffffffffffffffffffffffffffffff82169050919050565b6000620000e982620000bc565b9050919050565b61174880620001006000396000f3fe608060405260043610610099576000357c0100000000000000000000000000000000000000000000000000000000900463ffffffff168063198e2b8a1461009e5780632d5bf520146100c75780636b2c61c1146100f05780636b48eb031461012d578063aad2af421461016a578063aaf93ac114610193578063ab722ce8146101d0578063ad3089071461020d578063df4d17dc14610236575b600080fd5b3480156100aa57600080fd5b506100c560048036036100c091908101906110bb565b61025f565b005b3480156100d357600080fd5b506100ee60048036036100e99190810190610fec565b61058f565b005b3480156100fc57600080fd5b5061011760048036036101129190810190610fec565b61067c565b604051610124919061147a565b60405180910390f35b34801561013957600080fd5b50610154600480360361014f9190810190611069565b610750565b6040516101619190611539565b60405180910390f35b34801561017657600080fd5b50610191600480360361018c9190810190610f71565b610933565b005b34801561019f57600080fd5b506101ba60048036036101b59190810190610f48565b610a89565b6040516101c79190611458565b60405180910390f35b3480156101dc57600080fd5b506101f760048036036101f29190810190610fec565b610b20565b6040516102049190611539565b60405180910390f35b34801561021957600080fd5b50610234600480360361022f91908101906110bb565b610b48565b005b34801561024257600080fd5b5061025d60048036036102589190810190610f48565b610c87565b005b600033905060008060009054906101000a900473ffffffffffffffffffffffffffffffffffffffff1673ffffffffffffffffffffffffffffffffffffffff16637d0f22a183866040518363ffffffff167c01000000000000000000000000000000000000000000000000000000000281526004016102de9291906113ea565b602060405180830381600087803b1580156102f857600080fd5b505af115801561030c573d6000803e3d6000fd5b505050506040513d601f19601f820116820180604052506103309190810190611092565b905060008060010290506000600260008573ffffffffffffffffffffffffffffffffffffffff1673ffffffffffffffffffffffffffffffffffffffff16815260200190815260200160002080549050905060008111156103e757600260008573ffffffffffffffffffffffffffffffffffffffff1673ffffffffffffffffffffffffffffffffffffffff168152602001908152602001600020600182038154811015156103d957fe5b906000526020600020015491505b6103ef610d28565b6080604051908101604052808673ffffffffffffffffffffffffffffffffffffffff168152602001878152602001888152602001600115158152509050806001600086815260200190815260200160002060008201518160000160006101000a81548173ffffffffffffffffffffffffffffffffffffffff021916908373ffffffffffffffffffffffffffffffffffffffff16021790555060208201518160010190805190602001906104a3929190610d69565b5060408201518160020190805190602001906104c0929190610d69565b5060608201518160030160006101000a81548160ff021916908315150217905550905050600260008673ffffffffffffffffffffffffffffffffffffffff1673ffffffffffffffffffffffffffffffffffffffff1681526020019081526020016000208490806001815401808255809150509060018203906000526020600020016000909192909190915055507f0d2297cec1ae03481ad18bf4f056374d7da4ae00ce43627b64659002125cccf0848460405161057e929190611495565b60405180910390a150505050505050565b600061059b838361067c565b9050600115156001600083815260200190815260200160002060030160009054906101000a900460ff1615151415156105d357600080fd5b60016003600083815260200190815260200160002060003373ffffffffffffffffffffffffffffffffffffffff1673ffffffffffffffffffffffffffffffffffffffff16815260200190815260200160002060006101000a81548160ff0219169083151502179055507f44cd04f736ad09845a66019a358898aacdd64afdc1e497dea7cc83f6d81036df83833360405161066f9392919061141a565b60405180910390a1505050565b60008060009054906101000a900473ffffffffffffffffffffffffffffffffffffffff1673ffffffffffffffffffffffffffffffffffffffff1663e45dae5b3085856040518463ffffffff167c01000000000000000000000000000000000000000000000000000000000281526004016106f893929190611329565b60206040518083038186803b15801561071057600080fd5b505afa158015610724573d6000803e3d6000fd5b505050506040513d601f19601f820116820180604052506107489190810190611092565b905092915050565b610758610d28565b60016000838152602001908152602001600020608060405190810160405290816000820160009054906101000a900473ffffffffffffffffffffffffffffffffffffffff1673ffffffffffffffffffffffffffffffffffffffff1673ffffffffffffffffffffffffffffffffffffffff168152602001600182018054600181600116156101000203166002900480601f0160208091040260200160405190810160405280929190818152602001828054600181600116156101000203166002900480156108665780601f1061083b57610100808354040283529160200191610866565b820191906000526020600020905b81548152906001019060200180831161084957829003601f168201915b50505050508152602001600282018054600181600116156101000203166002900480601f0160208091040260200160405190810160405280929190818152602001828054600181600116156101000203166002900480156109085780601f106108dd57610100808354040283529160200191610908565b820191906000526020600020905b8154815290600101906020018083116108eb57829003601f168201915b505050505081526020016003820160009054906101000a900460ff1615151515815250509050919050565b600061093f848461067c565b9050600115156001600083815260200190815260200160002060030160009054906101000a900460ff16151514151561097757600080fd5b600460009054906101000a900473ffffffffffffffffffffffffffffffffffffffff1673ffffffffffffffffffffffffffffffffffffffff166323b872dd8686856040518463ffffffff167c01000000000000000000000000000000000000000000000000000000000281526004016109f2939291906113b3565b602060405180830381600087803b158015610a0c57600080fd5b505af1158015610a20573d6000803e3d6000fd5b505050506040513d601f19601f82011682018060405250610a449190810190611040565b507ffb718deb4373d991b86a4400b72aa17f65b77a0067773b9af07312e00598271785858585604051610a7a9493929190611367565b60405180910390a15050505050565b6060600260008373ffffffffffffffffffffffffffffffffffffffff1673ffffffffffffffffffffffffffffffffffffffff168152602001908152602001600020805480602002602001604051908101604052809291908181526020018280548015610b1457602002820191906000526020600020905b815481526020019060010190808311610b00575b50505050509050919050565b610b28610d28565b6000610b34848461067c565b9050610b3f81610750565b91505092915050565b60003390506000610b59828561067c565b905060006001600083815260200190815260200160002090508273ffffffffffffffffffffffffffffffffffffffff168160000160009054906101000a900473ffffffffffffffffffffffffffffffffffffffff1673ffffffffffffffffffffffffffffffffffffffff16141515610bd057600080fd5b83604051602001610be191906114be565b6040516020818303038152906040528051906020012081600101604051602001610c0b9190611517565b6040516020818303038152906040528051906020012014151515610c2e57600080fd5b83816001019080519060200190610c46929190610de9565b507f95cc0ae12bd9a5e87d3df5b8c102cef2b31bab9d9fd267387a974eb1a9924b618585604051610c789291906114e0565b60405180910390a15050505050565b600073ffffffffffffffffffffffffffffffffffffffff16600460009054906101000a900473ffffffffffffffffffffffffffffffffffffffff1673ffffffffffffffffffffffffffffffffffffffff16141515610ce457600080fd5b80600460006101000a81548173ffffffffffffffffffffffffffffffffffffffff021916908373ffffffffffffffffffffffffffffffffffffffff16021790555050565b608060405190810160405280600073ffffffffffffffffffffffffffffffffffffffff16815260200160608152602001606081526020016000151581525090565b828054600181600116156101000203166002900490600052602060002090601f016020900481019282601f10610daa57805160ff1916838001178555610dd8565b82800160010185558215610dd8579182015b82811115610dd7578251825591602001919060010190610dbc565b5b509050610de59190610e69565b5090565b828054600181600116156101000203166002900490600052602060002090601f016020900481019282601f10610e2a57805160ff1916838001178555610e58565b82800160010185558215610e58579182015b82811115610e57578251825591602001919060010190610e3c565b5b509050610e659190610e69565b5090565b610e8b91905b80821115610e87576000816000905550600101610e6f565b5090565b90565b6000610e9a8235611653565b905092915050565b6000610eae8251611665565b905092915050565b6000610ec28235611671565b905092915050565b6000610ed68251611671565b905092915050565b600082601f8301121515610ef157600080fd5b8135610f04610eff82611588565b61155b565b91508082526020830160208301858383011115610f2057600080fd5b610f2b8382846116bb565b50505092915050565b6000610f40823561167b565b905092915050565b600060208284031215610f5a57600080fd5b6000610f6884828501610e8e565b91505092915050565b60008060008060808587031215610f8757600080fd5b6000610f9587828801610e8e565b9450506020610fa687828801610e8e565b935050604085013567ffffffffffffffff811115610fc357600080fd5b610fcf87828801610ede565b9250506060610fe087828801610f34565b91505092959194509250565b60008060408385031215610fff57600080fd5b600061100d85828601610e8e565b925050602083013567ffffffffffffffff81111561102a57600080fd5b61103685828601610ede565b9150509250929050565b60006020828403121561105257600080fd5b600061106084828501610ea2565b91505092915050565b60006020828403121561107b57600080fd5b600061108984828501610eb6565b91505092915050565b6000602082840312156110a457600080fd5b60006110b284828501610eca565b91505092915050565b600080604083850312156110ce57600080fd5b600083013567ffffffffffffffff8111156110e857600080fd5b6110f485828601610ede565b925050602083013567ffffffffffffffff81111561111157600080fd5b61111d85828601610ede565b9150509250929050565b61113081611685565b82525050565b61113f81611601565b82525050565b6000611150826115d3565b808452602084019350611162836115b4565b60005b82811015611194576111788683516111af565b611181826115f4565b9150602086019550600181019050611165565b50849250505092915050565b6111a981611613565b82525050565b6111b88161161f565b82525050565b60006111c9826115e9565b8084526111dd8160208601602086016116ca565b6111e6816116fd565b602085010191505092915050565b60006111ff826115de565b8084526112138160208601602086016116ca565b61121c816116fd565b602085010191505092915050565b6000815460018116600081146112475760018114611267576112a8565b607f600283041680865260ff1983166020870152604086019350506112a8565b6002820480865260208601955061127d856115c1565b60005b8281101561129f57815481890152600182019150602081019050611280565b80880195505050505b505092915050565b60006080830160008301516112c86000860182611136565b50602083015184820360208601526112e082826111f4565b915050604083015184820360408601526112fa82826111f4565b915050606083015161130f60608601826111a0565b508091505092915050565b61132381611649565b82525050565b600060608201905061133e6000830186611136565b61134b6020830185611136565b818103604083015261135d81846111be565b9050949350505050565b600060808201905061137c6000830187611136565b6113896020830186611136565b818103604083015261139b81856111be565b90506113aa606083018461131a565b95945050505050565b60006060820190506113c86000830186611136565b6113d56020830185611136565b6113e2604083018461131a565b949350505050565b60006040820190506113ff6000830185611136565b818103602083015261141181846111be565b90509392505050565b600060608201905061142f6000830186611136565b818103602083015261144181856111be565b90506114506040830184611127565b949350505050565b600060208201905081810360008301526114728184611145565b905092915050565b600060208201905061148f60008301846111af565b92915050565b60006040820190506114aa60008301856111af565b6114b760208301846111af565b9392505050565b600060208201905081810360008301526114d881846111be565b905092915050565b600060408201905081810360008301526114fa81856111be565b9050818103602083015261150e81846111be565b90509392505050565b60006020820190508181036000830152611531818461122a565b905092915050565b6000602082019050818103600083015261155381846112b0565b905092915050565b6000604051905081810181811067ffffffffffffffff8211171561157e57600080fd5b8060405250919050565b600067ffffffffffffffff82111561159f57600080fd5b601f19601f8301169050602081019050919050565b6000602082019050919050565b60008160005260206000209050919050565b600081519050919050565b600081519050919050565b600081519050919050565b6000602082019050919050565b600061160c82611629565b9050919050565b60008115159050919050565b6000819050919050565b600073ffffffffffffffffffffffffffffffffffffffff82169050919050565b6000819050919050565b600061165e82611629565b9050919050565b60008115159050919050565b6000819050919050565b6000819050919050565b600061169082611697565b9050919050565b60006116a2826116a9565b9050919050565b60006116b482611629565b9050919050565b82818337600083830152505050565b60005b838110156116e85780820151818401526020810190506116cd565b838111156116f7576000848401525b50505050565b6000601f19601f830116905091905056fea265627a7a7230582098a9af3e0f70ca27a22ab43fca3ecc8e37dedb3ffd8860519020d9fa1951a4ca6c6578706572696d656e74616cf50037",
  "source": "pragma solidity ^0.5.0;\npragma experimental ABIEncoderV2;\n\nimport \"./Messages.sol\";\n\ninterface IToken {\n    function transferFrom(address from, address to, uint256 value) external returns (bool);\n}\n\ncontract Achievements {\n    Messages messages;\n\n    struct Achievement {\n        address owner;\n        string title;\n        string link;\n        bool exists;\n    }\n\n    mapping (bytes32 => Achievement) achievements;\n    mapping (address => bytes32[]) chains;\n    mapping (bytes32 => mapping (address => bool)) confirmedBy;\n\n    address token;\n\n    constructor(\n        address messagesContract\n    ) public {\n        messages = Messages(messagesContract);\n    }\n\n    function initToken(address tokenContract) public {\n        require(token == address(0));\n\n        token = tokenContract;\n    }\n\n    function getHash(address owner, string memory link)\n        public view returns (bytes32)\n    {\n        return messages.getMessageHash(address(this), owner, link);\n    }\n\n    function getAchievementsChain(address owner)\n        public view returns(bytes32[] memory)\n    {\n        return chains[owner];\n    }\n\n    function getAchievementByHash(bytes32 messageHash)\n        public view returns(Achievement memory)\n    {\n        return achievements[messageHash];\n    }\n\n    function getAchievement(address owner, string memory link)\n        public view returns(Achievement memory)\n    {\n        bytes32 messageHash = getHash(owner, link);\n        return getAchievementByHash(messageHash);\n    }\n\n    function updateTitle(string memory link, string memory newTitle)\n        public\n    {\n        address owner = msg.sender;\n\n        bytes32 messageHash = getHash(owner, link);\n\n        Achievement storage achievement = achievements[messageHash];\n\n        require(achievement.owner == owner);\n\n        require(keccak256(abi.encode(achievement.title)) != keccak256(abi.encode(newTitle)));\n\n        achievement.title = newTitle;\n\n        emit UpdateTitle(link, newTitle);\n    }\n\n    function create(string memory link, string memory title)\n        public\n    {\n        address owner = msg.sender;\n\n        bytes32 messageHash = messages.saveMessage(owner, link);\n\n        bytes32 previousMessageHash = bytes32(0);\n\n        uint256 achievementsChainLength = chains[owner].length;\n\n        if (achievementsChainLength > 0) {\n            previousMessageHash = chains[owner][achievementsChainLength - 1];\n        }\n\n        Achievement memory achievement = Achievement(owner, title, link, true);\n\n        achievements[messageHash] = achievement;\n\n        chains[owner].push(messageHash);\n\n        emit Create(messageHash, previousMessageHash);\n    }\n\n    function confirm(address owner, string memory link)\n        public\n    {\n        bytes32 messageHash = getHash(owner, link);\n\n        require(achievements[messageHash].exists == true);\n\n        confirmedBy[messageHash][msg.sender] = true;\n\n        emit Confirm(owner, link, msg.sender);\n    }\n\n    function support(address userAddress, address creatorAddress, string memory link, uint256 amount)\n        public\n    {\n        bytes32 messageHash = getHash(creatorAddress, link);\n\n        require(achievements[messageHash].exists == true);\n\n        IToken(token).transferFrom(userAddress, creatorAddress, amount);\n\n        emit Support(userAddress, creatorAddress, link, amount);\n    }\n\n    event Create(bytes32 messageHash, bytes32 previousMessageHash);\n    event UpdateTitle(string link, string newTitle);\n    event Confirm(address owner, string link, address witness);\n    event Support(address userAddress, address creatorAddress, string link, uint256 amount);\n}\n",
  "sourcePath": "/home/sevenflash/apps/diadem-escrow-protocol/contracts/Achievements.sol",
  "compiler": {
    "name": "solc",
    "version": "0.5.0+commit.1d4f565a.Emscripten.clang"
  },
  "schemaVersion": "3.0.1",
  "updatedAt": "2019-01-26T01:52:44.952Z",
  "devdoc": {
    "methods": {}
  },
  "userdoc": {
    "methods": {}
  }
}